:10000000001000100D040000090400000B040000A3
:10001000000000000000000000000000DFE3FFEF30
:1000200000000000000000000000000000000000D0
:100030000000000000000000000000005901000066
:1000400000000000000000000000000000000000B0
:1000500000000000000000000000000000000000A0
:100060000000000000000000000000000000000090
:100070000000000000000000000000000000000080
:100080000000000000000000000000000000000070
:100090000000000000000000000000000000000060
:1000A0000000000000000000000000000000000050
:1000B0000000000000000000000000000000000040
:1000C0000448054B10B5834203D0044B002B00D0ED
:1000D000984710BD540400105404001000000000A4
:1000E00006480749091A8910CB0F591810B549104D
:1000F00003D0044B002B00D0984710BD54040010CF
:10010000540400100000000010B5074C2378002BA9
:1001100009D1FFF7D5FF054B002B02D0044800E0C2
:1001200000BF0123237010BD540400100000000024
:1001300078060000054B10B5002B03D00449054894
:1001400000E000BFFFF7CCFF10BDC046000000007C
:100150005804001078060000024A13680133136047
:100160007047C0467004001010B500F045F800F06C
:100170006DF8FA211B4B8900186800F071F96423AF
:100180005843194B98420ED8C021184A0138506084
:1001900017480906036A1B021B0A0B43036200236C
:1001A00093600733136000F0A5F8122000F0D4F834
:1001B000072000F0D1F801220F21002000F0BEF846
:1001C00001220F21002000F0ABF80A4800F00CF9E2
:1001D00000220F21100000F0A3F8064800F004F9F7
:1001E000EEE7C0460C000010FFFFFF0010E000E04B
:1001F00000ED00E040420F0070B50E4D0E4BEA6F6F
:100200000E481343EB670E4B0E4C1B68DB689B6874
:10021000984700232365636501336365626D1A4265
:1002200005D0A365EB6F084A1340EB6770BDC0466D
:10023000F4E7C046048004408000040030750000EC
:10024000F81F000F008004407FFFFBFF03211E4AC0
:1002500070B5936A0B402ED0013B59424B411B496C
:100260005B420B401A495B188E2003248000115812
:1002700021404C42614149420B4016495D080D60E6
:1002800015499B080B601158144C490615D41449A4
:1002900003202160116D01401248022912D0032968
:1002A0000ED001290BD00560916D006800F0D8F8E0
:1002B0000D4B186070BD0D4BD6E70021E8E70C4BE5
:1002C0000360F1E72368FBE7008004408072A4FF2D
:1002D00080C3C901000000100400001008000010D5
:1002E00040420F000C0000101000001080A8120106
:1002F000001BB700074B084A181DC16F8833114314
:10030000C167196805480140196019680A431A60F5
:100310007047C0460080044040001000BFFFEFFF60
:1003200001238B40A0210906002A05D08822120152
:10033000801880000B5070478A22F8E701238B4019
:10034000A0210906002A05D08E2212018018800003
:100350000B5070479022F8E71F2806D8064AD16F45
:10036000012383400B43D36770473F28FCD8034ADF
:100370002038D16FF4E7C046048004400880044070
:100380000E498A681202120A1300824203D24B6895
:100390001B021B0A9B18181A824207D38B681B0288
:1003A0001B0A984201D29A42F8D270478B681B020E
:1003B0001B0A9842FAD39A42F8D2F6E710E000E01E
:1003C00070B50500074B5C682402A40AA54203D857
:1003D0002800FFF7D5FF70BD20002D1BFFF7D0FFD1
:1003E000F4E7C04610E000E0054B10B505490400F5
:1003F000186800F035F86043FFF7E2FF10BDC04613
:100400000C00001040420F007047704770B50D4B54
:1004100083F3088802220C4B0C481A6000230C4915
:100420000C4C1A188A4207D300210B4B0B4A9342FB
:1004300006D3FFF799FEFEE7E55804331560F0E7B1
:1004400002C3F4E700100010008004400000001018
:10045000540400107C0600005404001074040010C2
:10046000002243088B4274D303098B425FD3030AF3
:100470008B4244D3030B8B4228D3030C8B420DD306
:10048000FF22090212BA030C8B4202D31212090294
:1004900065D0030B8B4219D300E0090AC30B8B42D2
:1004A00001D3CB03C01A5241830B8B4201D38B0380
:1004B000C01A5241430B8B4201D34B03C01A524125
:1004C000030B8B4201D30B03C01A5241C30A8B4268
:1004D00001D3CB02C01A5241830A8B4201D38B0253
:1004E000C01A5241430A8B4201D34B02C01A5241F7
:1004F000030A8B4201D30B02C01A5241CDD2C30969
:100500008B4201D3CB01C01A524183098B4201D3E4
:100510008B01C01A524143098B4201D34B01C01ACF
:10052000524103098B4201D30B01C01A5241C30847
:100530008B4201D3CB00C01A524183088B4201D3B6
:100540008B00C01A524143088B4201D34B00C01AA2
:100550005241411A00D20146524110467047FFE70E
:1005600001B5002000F006F802BDC0460029F7D012
:1005700076E770477047C04610B50100002300229F
:10058000002000F01BF810BD70B5094B094CE41AAF
:10059000A41009D0084AA518AD00ED182B68013C3D
:1005A0009847043D002CF9D100F05EF870BDC046BC
:1005B0005004001054040010FFFFFF3FF0B5C64682
:1005C00000B51F4C82B024680194A424019D6400EE
:1005D0002D59002D2BD06C681F2C2EDC002809D142
:1005E0000020631C0234A4006B60615102B004BCA3
:1005F0009046F0BD8827A600AE19F2510137FF37AB
:10060000BC460122AC446746A2403F68904617436F
:100610006246176084277F00F3510228E0D12B0047
:1006200040468D33FF331A6810431860D8E7019DA8
:10063000019E4D35FF353551CDE701204042D5E7CC
:1006400074060000034B10B5002B02D00248FFF7E0
:1006500093FF10BD0000000089050000F8B5C046FA
:10066000F8BC08BC9E467047F8B5C046F8BC08BC4C
:0C0670009E4670472000001000000000B3
:10067C00C0E1E400E070720040420F00C0E1E40011
:10068C00C0E1E400000000002000001000000000A9
:10069C00000000000C03001074030010DC030010B9
:1006AC00000000000000000000000000000000003E
:1006BC00000000000000000000000000000000002E
:1006CC00000000000000000000000000000000001E
:1006DC00000000000000000000000000000000000E
:1006EC0000000000000000000000000000000000FE
:1006FC0000000000000000000000000000000000EE
:10070C0000000000000000000000000000000000DD
:10071C0000000000000000000000000000000000CD
:10072C0000000000000000000000000000000000BD
:10073C0000000000000000000100000000000000AC
:10074C000E33CDAB34126DE6ECDE05000B00000071
:10075C00000000000000000000000000000000008D
:10076C00000000000000000000000000000000007D
:10077C00000000000000000000000000000000006D
:10078C00000000000000000000000000000000005D
:100ABC0000000000000000004506000035010000A9
:040ACC00090100001C
:040000030000040DE8
:00000001FF
